:020000040800F2
:1000000088070020AD010008092200080522000829
:100010000722000861140008A52400080000000061
:100020000000000000000000000000000D22000899
:1000300063140008000000000B2200080F220008D3
:10004000C7010008C7010008C7010008C701000870
:10005000C7010008C7010008C7010008C701000860
:10006000C7010008C7010008C7010008C701000850
:10007000C7010008C7010008C7010008C701000840
:10008000C7010008C7010008C7010008C701000830
:10009000C7010008C7010008C7010008C701000820
:1000A000C7010008C7010008C7010008C701000810
:1000B000C7010008C7010008C7010008C701000800
:1000C000C7010008C7010008C7010008C7010008F0
:1000D000C70100088524000899240008C70100080A
:1000E000C7010008C7010008C701000800F002F8B6
:1000F00000F04DF80AA090E8000C82448344AAF175
:100100000107DA4501D100F042F8AFF2090EBAE872
:100110000F0013F0010F18BFFB1A43F0010318473B
:10012000042E0000242E0000103A24BF78C878C1A5
:10013000FAD8520724BF30C830C144BF04680C60ED
:10014000704700000023002400250026103A28BF35
:1001500078C1FBD8520728BF30C148BF0B60704739
:10016000662902F06A86642900F07C80782900F014
:10017000B580002070471FB500F086FC0400002009
:10018000002102F0EDFCE0601FBD10B510BD00F0D5
:1001900077FD1146FFF7EFFF02F002FB00F095FD3F
:1001A00003B4FFF7F2FF03BC00F098FD0948804755
:1001B00009480047FEE7FEE7FEE7FEE7FEE7FEE749
:1001C000FEE7FEE7FEE7FEE704480549054A064B61
:1001D0007047000071220008ED000008880100202F
:1001E0008807002088030020880300200FB41CB576
:1001F000074B06AA7B4469460090059800F02BFC4B
:100200000020694600F03AFC1CBC5DF814FB0000BD
:100210008508000070B5044685690068C10601D5EF
:10022000302600E02026C00707D070BDD4E90121A8
:1002300030469047206A401C20626D1EF6D570BD86
:1002400070B5044685690078C00707D170BDD4E950
:10025000012120209047206A401C20626D1EF6D5A7
:1002600070BD00002DE9F041064600241068752994
:10027000314616A510D0AFF30080002802DA4042C4
:1002800013A507E031688A0701D512A502E04907E6
:1002900004D511A5012401E0AFF3008000210A225A
:1002A00006F1240709E0B0FBF2FCB0FBF2F302FB1D
:1002B0001C00303078541846491C0028F3D12346DE
:1002C0002A463046BDE8F04100F059B90000000070
:1002D0002D0000002B0000002000000070B5044637
:1002E0000D4621461068AFF300802188090502D52C
:1002F0000F4A7A4402E00E4A7A440E32002104F199
:10030000240305E000F00F060009965D5E54491CC9
:100310000028F7D120780023000704D5702D02D0E3
:1003200009B1022311322046BDE8704000F027B920
:10033000602B00002DE9F05F894604464FF0000A6B
:10034000DFF824B1FB44C0F820A02046E1688847CC
:1003500000287DD0252806D0D4E901219047206AC5
:10036000401C2062F1E700255F462046E16888478F
:100370002028064607DB312E05D2B81910F8200CCC
:1003800008B10543F1E7A80701D525F00405C4F835
:100390001CA00027C4F818A02A2E09D0304602F06D
:1003A000A6F838B304EB8708303EC8F8186019E0A7
:1003B00059F8041B204604EB87029161E1688847E5
:1003C000012F064618D1E069002820DA25F0200523
:1003D0001DE0D8F8180000EB800006EB4000303834
:1003E000C8F818002046E1688847064602F07FF802
:1003F0000028EED1012F0AD02E2E08D12046E16828
:1004000088477F1C0646022F45F02005C4DBA06903
:10041000002803DA404245F00105A061E80701D059
:1004200025F01005A6B1A6F14100192802D8203602
:1004300045F400654A463146204625604D46FFF7A3
:100440008FFE60B1012807D0ED1D25F0070000E008
:1004500007E000F1080978E705F1040975E730467F
:100460007AE7206ABDE8F09F362B000010B5431CE8
:1004700002E010F8011B71B18107FAD14FF001328F
:1004800002C88C1A8C4314EAC211F9D0C01A0A06A9
:1004900003D0C01E10BDC01A10BD0A0401D0801EBA
:1004A00010BD0902FCD0401E10BD4FF0000200B587
:1004B000134694469646203922BFA0E80C50A0E887
:1004C0000C50B1F12001BFF4F7AF090728BFA0E835
:1004D0000C5048BF0CC05DF804EB890028BF40F801
:1004E000042B08BF704748BF20F8022B11F0804F43
:1004F00018BF00F8012B70474FF0013C50F8042B57
:1005000051F8043B9A4221D1A2EB0C03934313EA26
:10051000CC1317D150F8042B51F8043B9A4215D153
:10052000A2EB0C03934313EACC130BD150F8042B2A
:1005300051F8043B9A4209D1A2EB0C03934313EA0E
:10054000CC13DBD04FF00000704700BFD01A01BAC7
:10055000B1FA81F101F0180122FA01F0CB40C1F1AA
:100560002001DBB2C0B2C01A2CFA01F3D11A9143B8
:1005700011EAC311E6D170477047704770472DE903
:10058000F0470D4699469246044600F1240801685A
:10059000880604D5E06921F01001216000E0012007
:1005A000A84201DD471B00E00027A1697A1902EB90
:1005B0000900081AA0612078C00602D42046FFF77F
:1005C00029FE002608E0D4E901211AF80600904728
:1005D000206A401C761C20624E45F4DB2078C00661
:1005E0000AD52046FFF716FE06E0D4E901213020A7
:1005F0009047206A401C2062381EA7F10107F4DCF6
:1006000007E0D4E9012118F805009047206A401C52
:100610002062281EA5F10105F3DC2046FFF710FE3D
:100620002078000602D50220BDE8F0870120FBE714
:1006300070472DE9FF4F0C461E464FF0FF378BB039
:10064000D2E90001DDF860800A908A46C1F30A55BC
:1006500005B93D46002108464FF00000BAF1000FF1
:1006600000F4400005DA00EB80004FF4400101EA9D
:1006700050004FEA9059B9F1010F00DDB9460A98D0
:1006800050EA4A000ED044F61050A5F2FF3545431B
:100690002F14B8F1000F1ED07542291E1EDDC9F1BE
:1006A00000021CE0B8F1010F4FF0000001D0302132
:1006B00003E0F24305E02154401CB042FBDB30462E
:1006C0000022002121540B99C1F80880C1E90020C3
:1006D0000FB0BDE8F08FBD1B6D1CDEE74A4600DAA7
:1006E000694206A800F05AFA06AB93E8070003AB8C
:1006F00083E8070050460A9900F0F7FA8DE80700F2
:10070000A0F500501F3800900398002D09DD42F23B
:100710001F014A46084403A90390684600F056FDAD
:1007200008E0A0F500504A461F3803A90390684628
:1007300000F060FD8DE807000004000C03D04FF0CE
:10074000FF30410800E01046B8F1000F03D000224E
:10075000009215461EE0751E05D400F099F930325E
:1007600062556D1EF9D5B3460122084302D000221E
:100770007F1C04E02078302801D100227F1E002A4F
:10078000099786D01DE0112D07DA00F081F930328B
:1007900062556D1C50EA0102F5D1084302D0009861
:1007A000C8B10EE00021681E05E0235C625C635462
:1007B0002254401E491C8142F7DBAB46A81B401E59
:1007C0000990002004F80B000B98099AC0F80880E3
:1007D000C0E9002B7CE711264FF0000859E72DE90E
:1007E000F04F88460446D21D22F0070191B0D1E9AE
:1007F0000001CDE90A0101F056FE02460B98C00F38
:1008000001D02D2007E02068810701D52B2002E0D0
:10081000202101EAC000032A099001D0072A05DB44
:1008200003464146204600F079F90BE12078800626
:1008300001D5E06900E00620B8F1650F814606D0D9
:10084000B8F1660F18D0B8F1670F70D131E0002011
:10085000B9F1110F009001DB112301E009F101034F
:100860000AAA01A90CA8FFF7E4FEDDE90C70002636
:1008700009F10105834647E001204B4600904FF007
:1008800000470AAA01A90CA8FFF7D3FEDDE90DB0C5
:100890000C995D46002610B909F101000D18B9EB5D
:1008A000050003D4C0F1FF3609F10105A5EB0900ED
:1008B0002BE0B9F1010F01DA4FF001090020B9F185
:1008C000110F0090484601DD112300E003460AAAFB
:1008D00001A90CA8FFF7ADFEDDE90C704D4600261E
:1008E0008346207800070AD4AB4500DA5D4601A8AC
:1008F000012D04DD411911F8011C302907D04F45A5
:1009000002DA17F1040F04DA012082460FE06D1EAF
:10091000EEE7002F02DCED1B3E4403E0781CA8420A
:1009200000DD7D1CB81B00F1010A4FF00047207864
:10093000000703D4AA4501DB4FF0FF3A0021B7F1CD
:10094000004F0DF143088DF8431024D002202B23D3
:10095000002F01DA7F422D230A21021EA0F101009F
:1009600000DC5FB197FBF1FC97FBF1F201FB1C7C13
:1009700017460CF1300C08F801CDEEE7A8F10100A4
:1009800003702188090501D5452100E06521A0F10A
:10099000010800F8011C09980FA9A1EB0807FF1D29
:1009A00000B10120411901EBEA70A1693844081A2D
:1009B000401EA0612078C00602D42046FFF72AFC22
:1009C000099828B1D4E901219047206A401C20628F
:1009D0002078C00622D52046FFF71CFC1EE0002E22
:1009E00004DBB34502DD01A8805D00E03020D4E9DE
:1009F00001219047206A401C2062761CAAF1010068
:100A00005FEA000A0AD100F03FF8C0680168405C64
:100A1000D4E901219047206A401C2062281EA5F1DC
:100A20000105DCDC07E0D4E9012118F8010B90474F
:100A3000206A401C2062381EA7F10107F3DC204623
:100A4000FFF7FEFB032011B043E6000001694A1CDA
:100A500002610878704700B58FB0CDE901310021FF
:100A6000059105497944CDE9031011466846FFF721
:100A700061FC0FB000BD0000E5FFFFFF0A6802F84F
:100A8000010B0A60704700000048704744010020D5
:100A900030B5B0F10A024FEA900E71F100034EEA50
:100AA000817EB0EB0E0061EB91014FEA101E4EEA21
:100AB000017E10EB0E0041EB11114FEA102E4EEAB1
:100AC000016E10EB0E0041EB11214FEA104E4EEA81
:100AD000014E10EB0E0041EB1141401841F10001B5
:100AE0004FEAD00040EA41704FEAD10110EB800597
:100AF0004FEA810444EA907444EB01046D1944EB1D
:100B00000404521BA3414FF0000348BF0A3200D532
:100B100030BD401C41F1000130BD00002DE9F04125
:100B20001F46044603260168072A01F4006004DB1F
:100B300008B116A505E016A503E008B115A500E06B
:100B400015A521F010002060A069C01EA0610FB1A2
:100B5000401EA0612046FFF75DFB4FB1D4E90121A3
:100B600038469047206A401C2062C01C206206E084
:100B7000206AFAE7D4E9012115F8010B9047761EA7
:100B8000F8D22046FFF75CFBBDE8F0814E414E00F5
:100B90006E616E00494E4600696E66002DE9F047B1
:100BA000814616468AB0334878440DC88DE80D005A
:100BB00030487844801C03AC0DC884E80D0041F631
:100BC0009B300844372190FBF1F290FBF1F5A5F141
:100BD000800501FB12041B3C02D56442012000E0A9
:100BE0000020DFF890A080460027FA44AAF1BE0A50
:100BF0000DE0E00709D03246684607EB47010AEBF3
:100C0000810100F0F7FA8DE8070064107F1C002CCA
:100C1000EFD1184F7F44AC3F18E0E80714D007EB42
:100C200004100DF1180A90E80E008AE80E00C06862
:100C3000F04201D198190890324606A903A800F0A5
:100C4000D9FA03AB83E807006D10641C002DE4D1D2
:100C500032466946B8F1000F03A802D000F0B6FA98
:100C600001E000F0C7FAC9E90001C9F808200AB09C
:100C7000BDE8F08760230000004870472401002091
:100C80007546FFF7F9FFAE4605006946534620F06A
:100C90000700854618B020B5FFF796FABDE820405A
:100CA0004FF000064FF000074FF000084FF0000B28
:100CB00021F00701AC46ACE8C009ACE8C009ACE8DB
:100CC000C009ACE8C0098D46704710B50446AFF3C3
:100CD00000802046BDE81040FFF762BA01491820A5
:100CE000ABBEFEE72600020070475FEA400C08BF7B
:100CF00091F0000F4FEA8C234FEAC12243EA515191
:100D00004FEA1C5018BF00F5F0404FEA300018BF02
:100D100041F000415FEA6C5C00F02980BCF1FF3FCC
:100D200008BF40F080407047130C06BF12044FF01C
:100D3000100C4FF0000C130E04BF12020CF1080C43
:100D4000130F04BF12010CF1040C930F04BF9200A7
:100D50000CF1020CD30F04BF52000CF1010C114630
:100D60004FF00002A0F11F00A0EB0C00704711F043
:100D7000004F08BF704731F000413FF4D5AF0B0C76
:100D800006BF09044FF0100C4FF0000C0B0E04BF0F
:100D900009020CF1080C0B0F04BF09010CF1040C43
:100DA0008B0F04BF89000CF1020CCB0F04BF49006C
:100DB0000CF1010CCCF12003A0EB0C0022FA03F3A0
:100DC00002FA0CF241EA030100F10100704720F041
:100DD0007F4C80EA030023F07F47ACEB070303F569
:100DE0007C5300F0004003F1FF032DE980494FEAF6
:100DF000154B09B44FEA144325EA0B4E24EA034885
:100E00000FF2042606EB132749083E785FEA320208
:100E100003FB0667C7F5000707FB06F64FEA5437E2
:100E20004FEAD64606F1020607FB066CCCF1005CE1
:100E30004FEA1C472CEA074C07FB06F40CFB06F5AF
:100E400004EB15464FEA961634BF00204FF00040E1
:100E50004FEAD13706FB07FC4FEA1C4C0CFB0BF7A3
:100E6000D21B03FB0CF761EB07010CFB0EF7B0EB99
:100E7000074072EB17420CFB08F734BFA2EB0742A6
:100E8000B2EB074261EB17414FEA0C444FEA91077E
:100E900006FB07FC4FEA1C4C0CFB0BF7B0EBC74002
:100EA00072EB573203FB0CF734BFA2EBC742B2EB35
:100EB000C74261EB57310CFB0EF7B0EBC70072EB8A
:100EC00057720CFB08F734BFA2EBC702B2EBC702A4
:100ED00061EB5771039F4FEA816141EA921104EB84
:100EE000CC044FEAD1374FEA826206FB07FC42EAA4
:100EF00090124FEA80604FEA1C4C0CFB0BF7D21BA0
:100F000003FB0CF761EB07010CFB0EF7B0EB07409E
:100F100072EB17420CFB08F734BFA2EB0742B2EBAF
:100F2000074261EB17414FEA8C554FEA910704EBFA
:100F30009C2406FB07FC4FEA1C4C0CFB0BF7B0EBA8
:100F4000C74072EB573203FB0CF734BFA2EBC7422A
:100F5000B2EBC74261EB57310CFB0EF7B0EBC700A9
:100F600072EB57720CFB08F734BFA2EBC702B2EB6F
:100F7000C70261EB577115EB4C254FEA816141EADD
:100F800092114FEA82624FEAD13742EA901206FB91
:100F900007FC44F100044FEA80604FEA1C4C0CFB54
:100FA0000BF7D21B03FB0CF761EB07010CFB0EF7F1
:100FB000B0EB074072EB17420CFB08F734BFA2EB13
:100FC0000742B2EB074261EB174115EB1C154FEAE4
:100FD000813141EA92414FEA823242EA90424FEA3D
:100FE00080304FEA0C7644F1000448EA03434EEAAD
:100FF0000B484FF0000EB2EB080C71EB030724BF57
:10100000624639464EEB0E0E4FF0000B001852416F
:1010100049414BEB0B0BB2EB080C71EB03077BF177
:10102000000B24BF624639464EEB0E0E4FF0000B0C
:101030000018524149414BEB0B0BB2EB080C71EB22
:1010400003077BF1000B24BF624639464EEB0E0EC0
:1010500051EA020718BF46F0010616EB0E7655F16D
:10106000000254F1000103D5BDE88901BDE8008804
:10107000BDE88901BDE80048B619524141EB0101C4
:10108000A3F10103704780807F7E7D7C7B7A797835
:10109000777676757473727171706F6E6E6D6C6C3D
:1010A0006B6A6A69686867666665646463636261DF
:1010B0006160605F5F5E5E5D5D5C5C5B5B5A5A5960
:1010C00059585857575656555555545453535252CC
:1010D0005251515050504F4F4F4E4E4D4D4D4C4C24
:1010E0004C4B4B4B4A4A4A4949494848484747476D
:1010F00047464646454545444444444343434342AA
:10110000424242414141002B26D4770021D01CB5F8
:101110004FEA370703B44FF010004FF010014FF0C3
:1011200000000FBCBDE810400BF1010BBBF1010F3B
:1011300008BF5FEA170722BF12F1010211F1010196
:101140004FF0004143F1000300F0004043EA00008B
:101150007047F9D35708DAE746EA064613F1400F1D
:101160004FEA16461FDD13F1200FDFBF16430A4674
:10117000002120335B42C8D0C3F1200746EA06466F
:1011800002FA07F74FEA164646EA0706C3F12007B8
:1011900022FA03F201FA07F721FA03F14FF00003F4
:1011A00042EA0702B1E746EA020646EA06464FEA85
:1011B000164646EA0106BCBF46EA0646360C4FF024
:1011C00000034FF000024FF000019EE72DE9C048F8
:1011D000934630B491E8380007C831EA400C48BF64
:1011E00034EA430C03D5FFF7F2FDFFF78CFFF0BCA8
:1011F000BDE800882DE9C048934630B491E8380036
:1012000007C810F0804F08BF13F0804F03D100F0E3
:1012100005F8FFF778FFF0BCBDE8008820F07F47B5
:1012200080EA030023F07F4C07EB0C03A3F57C530B
:1012300000F00040A3F1FE0392F0000F00F0B38035
:1012400095F0000F00F077802DE901494FEA114039
:101250004FEA144621EA004800FB06FC24EA064750
:1012600008FB06F607FB08F800FB07F718EB064833
:101270004CEB164C4FEA124B18EB07484FEA154659
:101280004CEB174022EA0B4E0BFB06FC25EA064707
:101290000EFB06F607FB0EFE0BFB07F71EEB064EDA
:1012A0004CEB164C4FF000061EEB074E4CEB174B69
:1012B00018EB0B0840F1000018EB0E0B58EB000880
:1012C00040F100008F1A4FF000013CBFC943661B7C
:1012D00014BFB5EB040C00213CBFC943F61B4FEA19
:1012E00017444EEA8E0E27EA04454FEA1C4704FBDA
:1012F00007622CEA074C05FB07F70CFB05F604FB1D
:101300000CFC16EB074642EB174216EB0C4642EB81
:101310001C421BEB060658EB0202414146EA9E06C0
:1013200001D5BDE80189B619524141EB0101A3F194
:101330000103BDE801894FEA14454FEA114724EA49
:10134000054621EA074C05FB07F406FB07F70CFBF3
:1013500006F105FB0CFC11EB074144EB17444FEA87
:10136000124711EB0C4144EB1C4422EA074C05FBED
:1013700007F206FB07F70CFB06F605FB0CFC16EB69
:10138000074642EB174216EB0C4642EB1C456A1827
:1013900054F1000148BF7047B619524141EB0101B9
:1013A000A3F10103704795F0000F37D04FEA1142C7
:1013B0004FEA144721EA024624EA074C02FB07F1F0
:1013C00006FB07F70CFB06F402FB0CFC14EB0744CE
:1013D00041EB17414FEA154714EB0C4441EB1C411C
:1013E00025EA074C02FB07F506FB07F70CFB06F6A0
:1013F00002FB0CFC16EB074645EB174516EB0C46BB
:1014000045EB1C42121951F1000148BF7047B61953
:10141000524141EB0101A3F1010370474FEA14452A
:101420004FEA114724EA054621EA074C05FB07F17C
:1014300006FB07F70CFB06F24FF0000605FB0CFC61
:1014400012EB074241EB174112EB0C4251EB1C41EE
:1014500048BF7047921841EB0101A3F101037047A7
:10146000FEE7704710B590F821100022022905D040
:101470000421816380F82020012010BD01680B68E1
:1014800023F00E030B6001680B6823F001030B606F
:1014900090F84030C46B012101FA03F3636080F8D7
:1014A000211080F82020104610BD000010B590F8E3
:1014B00021100024022903D00421816301243DE08E
:1014C00001680A6822F00E020A6001680A6822F0C8
:1014D00001020A601A4A0168914201D1012121E00A
:1014E000174A1432914201D110211BE0144A2832CC
:1014F000914201D1891515E0114A3C32914201D146
:1015000089140FE00E4A5032914202D14FF48031DB
:1015100008E00B4A6432914202D14FF4801101E09D
:101520004FF08071064A083A5160012180F821107D
:10153000002180F82010416B01B18847204610BD82
:101540000800024070B5044600F0FEF80546601C35
:1015500002D004480078044400F0F6F8401BA04292
:10156000FAD370BD080000202DE9F84FDFF8B891DC
:10157000002409F1040A0AF1040B23460F270BF19A
:10158000040EC9E00125A5402A40AA427DD1674E3C
:10159000D1F804C0ACEB0608B44532D014DCBCF181
:1015A000030F3AD009DCBCF1000F2AD0BCF1010FC7
:1015B0001CD0BCF1020F31D11DE0BCF1110F17D0CE
:1015C000BCF1120F2AD119E0B8F5881F19D006DC3A
:1015D000B8F5803F15D0B8F5801F1FD111E0B8F5E0
:1015E000001F0ED0B8F5041F18D10AE0CB6815E033
:1015F000CB681B1D12E0CB6808330FE0CB680C33BF
:101600000CE08B682BB1012B4FF0080303D0456130
:1016100004E0042302E0056100E00023FF2A01D872
:10162000064601E000F104064FEA840501D9A5F160
:101630002005D6F8008007FA05FC28EA0C0803FA12
:1016400005F548EA0508C6F800804D68ED0062D54A
:10165000374DAE6946F00106AE61AD6924F0030670
:1016600005F001050095334D06EB050CDCF808503C
:10167000A607360F07FA06F825EA0805DFF8B8804E
:10168000404503D14FF0000817E044E0DFF8AC809C
:10169000404502D14FF001080FE0DFF8A48040453B
:1016A00002D14FF0020808E0DFF89880404502D1EF
:1016B0004FF0030801E04FF0040808FA06F848EA82
:1016C0000508CCF808804D68D9F80060ED034D4658
:1016D00001D5164300E096432E604D68DAF80060AD
:1016E000AD03554601D5164300E096432E604D6884
:1016F000DBF80060ED025D4601D5164300E096433D
:101700002E604D68DEF80060AD02754601D51643C7
:1017100000E096432E60641C0D682A46E5407FF485
:1017200031AFBDE8F88F0000000401400000111047
:10173000001002400000014000080140000C014080
:10174000001001400014014001488068704700000B
:101750000800002070B5040004D094F83D00002576
:1017600010B106E0012070BD84F83C50204600F026
:1017700089FC242084F83D002068C16821F40051D0
:10178000C160204600F0F0FD2068016921F490411D
:1017900001612068416921F02201416120684169AD
:1017A00041F0080141612068C16841F40051C16005
:1017B0002564202084F83D0084F83E00002070BDA0
:1017C0000248816802781144816070470800002057
:1017D000074810B5016841F010010160032000F0D6
:1017E00075F80F2000F006F800F024F8002010BD76
:1017F0000020024070B50D4D04464FF47A712878F0
:10180000B1FBF0F00A490968B1FBF0F000F0ECFA26
:1018100048B9102C07D200222146501E00F036F89D
:1018200000206C6070BD012070BD00000800002029
:10183000140000200C4808B5816941F00101816164
:10184000816901F001010091C16941F08051C161DC
:10185000C06900F0805000900448416821F0E061C8
:1018600041F00071416008BD0010024000000140DD
:10187000002809DB00F01F0201219140400980008F
:1018800000F1E020C0F8001170470000F0B40E4BEA
:101890001B680C46C3F30223C3F10705042D00D9CE
:1018A0000425191D072901D2002300E0DB1E0126B3
:1018B00006FA05F1491E214099409E40761E1640C9
:1018C0003143F0BC00F003BE0CED00E0064900F02F
:1018D000070208684FF6FF03184040EA0220034A57
:1018E00010430860704700000CED00E00000FA05AE
:1018F0002DE9F0470F46050061D0434E306800F0F7
:101900000700B84209D2306820F007003843306041
:10191000306800F00700B84251D128683B4C81077D
:1019200012D5400703D5606840F4E0606060287815
:10193000000703D5606840F4605060606068A96883
:1019400020F0F000084360602878C00728D068685D
:10195000012810D02168022810D0890700292EDA2A
:10196000616821F0030101436160FFF7EDFE8046ED
:1019700041F288390DE021688903EFE78901EDE73D
:10198000FFF7E2FEA0EB0801494502D90320BDE8BC
:10199000F0876068696800F00C00B0EB810FEFD150
:1019A000306800F00700B8420BD9306820F007001B
:1019B00038433060306800F00700B84201D00120A1
:1019C000E5E72878400705D56068E96820F4E0601D
:1019D000084360602878000706D56068296920F40C
:1019E000605040EAC100606000F038F86168084A61
:1019F000C1F30311515CC8400649086006480068FD
:101A0000FFF7F8FE0020C2E700200240001002406D
:101A10003E2E0008140000200C0000200448054958
:101A200000684968044AC1F30221515CC84070470C
:101A300014000020001002404E2E00080448054902
:101A400000684968044AC1F3C221515CC84070472C
:101A500014000020001002404E2E000812A185B094
:101A60000FC98DE80F0014A0144A00680490516853
:101A7000134801F00C03042B10D0082B0ED1C1F336
:101A80008343C9031DF803000AD5516804AAC1F3B2
:101A90004041515C0A4A5043B0FBF1F005B0704739
:101AA00008494843FAE7000002030405060708094D
:101AB0000A0B0C0D0E0F1010010200000010024066
:101AC00000127A0000093D002DE9F84F040070D0A3
:101AD0002078C04DC00749D06868C0F38100012854
:101AE00007D06868C0F38100022809D16868C00384
:101AF00006D52868800339D560680028E7D035E02E
:101B00006068B0F5803F0BD010B1B0F5A02F11D0B8
:101B1000286820F480302860286820F4802002E0C3
:101B2000286840F480302860606890B1FFF70CFEB0
:101B300006460AE0286840F480202860F0E700BFED
:101B4000FFF702FE801B642873D828688003F7D54E
:101B50000CE0FFF7F9FD064605E000BFFFF7F4FDD6
:101B6000801B6428F0D828688003F7D420789A4E28
:101B700080074FF001094FF0000839D5686810F070
:101B80000C0F07D06868C0F38100022809D168688B
:101B9000C00306D42868800714D52069012808D11D
:101BA00010E02069B0B1C6F80090FFF7CDFD074600
:101BB00005E00AE1FFF7C8FDC01B0228C4D8286869
:101BC0008007F7D52868616920F0F80040EAC10075
:101BD00028600DE0C6F80080FFF7B6FD074604E078
:101BE000FFF7B2FDC01B022823D828688007F7D46E
:101BF000207800072CD57948A169D9B1C0F80090A8
:101C0000FFF7A2FD074604E0FFF79EFDC01B022878
:101C10000FD8686A8007F7D571484FF4FA51006809
:101C2000B0FBF1F0009000BF0098411E0091FAD285
:101C30000EE080E0C0F80080FFF786FD074604E074
:101C4000FFF782FDC01B022875D8686A8007F7D4A9
:101C50002078400760D5E8690027C00008D4E8690B
:101C600040F08050E861E869012700F08050009062
:101C70005C480168C90513D40168834641F480714A
:101C80000160FFF761FD824606E000BFFFF75CFDE3
:101C9000A0EB0A0064284ED8DBF80000C005F5D59B
:101CA000E06801280AD008B1052813D0286A20F07E
:101CB00001002862286A20F0040002E0286A40F04F
:101CC00001002862E06841F2883B98B1FFF73CFDD3
:101CD00082460BE0286A40F004002862EEE700BF6D
:101CE000FFF732FDA0EB0A0159455AD8286A800750
:101CF000F6D50CE0FFF728FD824605E0FFF724FD4E
:101D0000A0EB0A0159454CD8286A8007F6D41FB1C8
:101D1000E86920F08050E861E06988B36968C1F340
:101D20008101022944D00228C6F8608004D0FFF760
:101D30000BFD044638E034E0FFF706FD074604E0FB
:101D4000FFF702FDC01B02282BD828688001F7D4BA
:101D5000206AB0F5803F05D16868A16820F40030A2
:101D600008436860D4E908010843696821F47411E4
:101D700008436860C6F86090FFF7E6FC044606E09A
:101D800025E000BFFFF7E0FC001B022809D8286807
:101D90008001F7D51BE000BFFFF7D6FC001B02282F
:101DA00002D90320BDE8F88F28688001F4D40EE042
:101DB0000128F7D06868226A00F48031914204D18A
:101DC000616A00F47010884201D00120EAE7002027
:101DD000E8E7000000100240000042428004424256
:101DE000140000200070004010B5401EB0F1807F4C
:101DF00001D3012010BD4FF0E02460610F21601776
:101E000000F065FB0020A06107202061002010BDCC
:101E100070477047F8B5026804461068D168536986
:101E200010F00F0F4FF0000554D003F0010601F43D
:101E3000907737435FD0C20705D0CA0503D5226C1F
:101E400042F001022264420705D5DA0703D0226C72
:101E500042F002022264820705D5DA0703D0226C21
:101E600042F004022264020707D501F02002324347
:101E700003D0226C42F008022264226C002A35D082
:101E8000800604D5880602D5204600F012FA2068A4
:101E90004069216CC0F3801001F008010143204625
:101EA00025D000F0EEF92068416949061BD541694B
:101EB00021F040014161A06BA8B158494163A06B7A
:101EC000FFF7F4FA002811D0A06B416B01B0BDE818
:101ED000F040084783060ED58B060CD52046BDE89A
:101EE000F84000F0E6B92046FFF793FFF8BDFFF792
:101EF00090FF2564F8BD266B2023012E52D1C60623
:101F000050D5CE064ED510685068009050694006F6
:101F10002AD5A16B086840680004000CEAD0A68DA1
:101F20008642E7D9E0858869202818D0D06820F457
:101F30008070D0602068416921F001014161206812
:101F4000416921F04001416184F83E3025632068F9
:101F5000C16821F01001C160A06BFFF783FAA08D6A
:101F6000E18D401A81B219E0A08DE18D401A81B255
:101F7000E08D0028BED00029BCD0D06820F490703D
:101F8000D0602068426922F00102426184F83E304C
:101F900025632068C26822F01002C2602046FFF765
:101FA00037FFF8BD05062BD50D0629D594F83D0061
:101FB0002128F6D1A068B0F5805F01D12069B0B1C9
:101FC000206A411C2162216800784860E08C401E34
:101FD0000004000CE084E4D12068C16821F0800195
:101FE000C1602068C16841F04001C160F8BD206A4D
:101FF0000088C0F308005060206A801C2062E5E77A
:102000004006F3D54806F1D5D168204621F04001BD
:10201000D16084F83D3000F0F4F8F8BD7322000878
:1020200070B5040004D094F83D00002510B106E01E
:10203000012070BD84F83C50204600F023F8242095
:1020400084F83D002068C16821F40051C160204639
:1020500000F08AF92068016921F49041016120684B
:10206000416921F02A0141612068C16841F40051B1
:10207000C1602564202084F83D0084F83E000020E3
:1020800070BD000030B585B0002400940194029426
:1020900003942A4D03682A4903222A48AB421ED1E1
:1020A0008B6943F480438B618B6903F48043049311
:1020B0008B6943F004038B618969039201F0040189
:1020C000049141150091122101916946FFF74CFAE4
:1020D000002211462520FFF7D9FB252029E01A4DC3
:1020E000AB4228D1CB6943F40033CB61CB6903F415
:1020F000003304938B6943F004038B618969039275
:1021000001F004010491042100910221019169462A
:102110000546FFF729FA0820CDE90004694628465C
:102120000294FFF721FA002211462620FFF7AEFBAA
:102130002620FFF79DFB05B030BD000000380140B0
:1021400000100240000801400044004070470000B9
:102150002DE9F843044690F83D001F4616460D460B
:1021600020284CD1C5B1BEB194F83C00012846D01E
:10217000012084F83C004FF00008C4F84080212082
:1021800084F83D00FFF7E0FAA6848146E684A06863
:10219000B0F5805F03D004E00120BDE8F88320693A
:1021A00028B12E465FF0000584F83C800EE0002642
:1021B000FAE78021204600F033F9A0B9AEB116F855
:1021C000010B21684860E08C401EE084E08C4B46A7
:1021D0004FF0000200970028EBD14FF0400120465D
:1021E00000F01EF930B10320D7E735F8020BC0F339
:1021F0000800E6E7202084F83D000020CDE702201B
:10220000CBE77047FEE7FEE7FEE770477047FFF752
:10221000D7BA30B58FB028216846FEF746F91421A9
:102220000AA8FEF742F901210804CDE900100024B4
:10223000029402250491CDE907504FF4E010099073
:102240006846FFF741FC08B172B6FEE70F20CDE902
:102250000A054FF48060CDE90C4002210AA80E94D3
:10226000FFF746FB002801D072B6FEE70FB030BD85
:10227000704710B5406A0021C185C184FFF7C9FDD0
:1022800010BD0168CA6822F49072CA6001684A6988
:1022900022F001024A61016B012904D10168CA6878
:1022A00022F01002CA60202180F83E100021016354
:1022B000704708B590F83E10222901D0022008BDD1
:1022C00082684FF480539A4201D1016921B1816A39
:1022D0009A421BD04AB10AE00268816A5268C2F38E
:1022E00008020A80816A891C08E0026972B10268EA
:1022F000526802F07F020A70816A491C8162C18DB6
:10230000491E0904090CC18503D019E0026852680E
:10231000F1E70168CA6822F02002CA600168CA6851
:1023200022F48072CA6001684A6922F001024A619F
:10233000202180F83E10016B012903D0FFF706FF32
:10234000002008BD002101630168CA6822F0100264
:10235000CA6001680A68D20602D50A684968009115
:10236000818DFFF755FDEBE770B504460068016904
:10237000E26821F44051114301612169A0680843DA
:10238000616908432168CA6841F20C639A430243B9
:10239000CA6020684169A26921F44071114341611A
:1023A0001E492068884202D1FFF748FB01E0FFF791
:1023B00035FB00EBC00101EB001260686421800076
:1023C000B2FBF0F3B3FBF1F36FF018067343B2FB0B
:1023D000F0F5B2FBF0F605EB8305322303EB0515B0
:1023E000B5FBF1F5B6FBF1F605F0F00505EB0615CA
:1023F000B2FBF0F6B2FBF0F0B0FBF1F06FF01802B8
:10240000504306EB800003EB0010B0FBF1F02168B5
:1024100000F00F002844886070BD000000380140C3
:102420002DE9F041984617460E460446069D1DE0EC
:10243000681C1BD02DB1FFF787F9A0EB0800A8425C
:1024400014D92068C16821F4D071C1602068416945
:1024500021F001014161202084F83D0084F83E0014
:10246000002084F83C000320BDE8F081206800686B
:1024700036EA000004D00020B842D9D00020F3E7AB
:102480000120F9E710B500F05DFABDE81040014801
:10249000FFF7C0BC500000200148FFF7BBBC0000A4
:1024A00094000020FEE7490050EAC12018BF042034
:1024B0004A0D18BF40F0010040F2FF72B2EB515FCD
:1024C00008BF40F00200012808BF05207047090737
:1024D000090E002804DB00F1E02080F800147047AA
:1024E00000F00F0000F1E02080F8141D7047303834
:1024F0000A2801D2012070470020704730B50246FB
:102500000020FF240346D50701D00C7000E00B70BB
:10251000401C5208C0B2491C0828F4D3084630BDFC
:102520002DE9F04387B000F06AFADFF8CC8000278D
:10253000324DF0284CD0324800F072FA10F0FF0013
:10254000687006D0DFF8B890384609F11C09AF6012
:102550003BE04046C5E9010700BFA968491CA960E6
:102560008142F9D3F6E7264901EBC004204600F08A
:10257000A1F9E1790646B14201D122A000E023A0F1
:10258000E860A868C9F80000E0780DF1080EE3796A
:102590006278A1788EE80F0021796079CDE9000199
:1025A000A37922781CA109F10400FDF71FFEE07950
:1025B000B04207D0A968C9F8001021A109F10400B0
:1025C000FDF714FEA868401CA86069788842CAD349
:1025D000C5E90187404600BFA968491CA96081423E
:1025E000F9D308A1E868FDF787FF002801D04FF074
:1025F000FF3007B0BDE8F08340420F001800002014
:10260000E4000020435243204F4B0000435243203C
:102610004552524F52210000534E3A202530325835
:102620002F25303258253032582530325825303257
:102630005825303258253032582F25303258000076
:102640000A2063616E27742072656164206361757E
:10265000736520434E43206572726F720000000064
:102660002DE9F843184C0020184EA51CDFF86080B7
:1026700004F11007A06022E016F83010E1B1102933
:1026800001D0282918D106EBC00101220F4800F023
:1026900002FA0090BDF80000608095F9001068789B
:1026A00001EB810100EB410000F064FB414600F0CA
:1026B0009FFAA16847F82100A068401CA0606178DB
:1026C0008842D9D3BDE8F88318000020E400002038
:1026D000000020412DE9F05F0025894607464FF0B4
:1026E000FF3B2E4600F08BF9F02857D0F02000F089
:1026F000C5F900BF4FEAD50809EB080AFF2000F032
:10270000A7F900F0E3F800F074F90446FF2000F0A8
:102710009FF900F0DBF800F06CF9844201D1012C44
:1027200003D0844205D0ACB936E04FF0FF30BDE8AD
:10273000F09F3869A84202D14FF001040AE02ADB79
:1027400007EB080005F00701007D20FA01F010F00A
:10275000010420D09AF8000005F007020121914001
:1027600008438AF80000BCB15FF0FF0000F070F988
:102770006D1CEDB2402DBDD3C7F810B019F806009E
:10278000B919761CF6B20875072EF7D338690028F8
:1027900004DD0120CBE7AB460020E7E70020C6E7D9
:1027A0001CB5FFF715F8FFF734FD2948816941F0A2
:1027B00020018161816901F020010091816941F06E
:1027C000040181618069234900F0040000902248DF
:1027D0004FF4E13500240160C0E901540C26C460C7
:1027E000C0E904468461C461FEF7B4FF08B172B663
:1027F000FEE71948194944300160C0E90154C4603A
:10280000C0E904468461C461FFF70AFC08B172B6EE
:10281000FEE7FFF785FE124D124C4FF4FA6600BF3B
:10282000FFF71EFF2868606000F0B6F9CDE90001EF
:1028300022680948521C0CA120382260FDF7D6FC02
:102840000548203800F062F93046FEF77BFEE7E7E6
:1028500000100240003801405000002000440040B9
:10286000280000200000002025642E54656D70654E
:102870007261747572653A2025660D0A00000000C9
:1028800070B5064600221046B45C002380EA0405B9
:1028900015F0010F4FEA50004FEA540401D080F0C8
:1028A0008C005B1CDBB2082BF0D3521CD2B28A42E4
:1028B000EAD370BD0721FFF7E3BF10B5084600F06B
:1028C00032F8BDE81040442000F0D8B810B500211F
:1028D0000120074B4FF47A7288401C78204202D0C6
:1028E000521E92B2F9D2034830F8110010BD000018
:1028F00018000020D800002010B500224FEA020383
:1029000000EBC20400216354491C0829FBDB521C64
:10291000022AF5DB00214218491C13750829FADB4D
:102920004021016110BD70B50546002400F067F834
:10293000552000F0A3F8285D00F0A0F8641C082CD6
:10294000F9DB70BD0C4800210068800613D50A48E9
:102950000C38026892060ED502689206FCD54068D3
:10296000064AC0F3080022F81100054801228A40F7
:1029700001789143017070470C380140D800002065
:10298000180000202DE9F047084609780024154674
:10299000102904D0282902D01046BDE8F087482726
:1029A000FFF7C1FFBE2000F069F8A7F10806F01795
:1029B00006EB50704FEAE0084FF00109A8EBD40095
:1029C000C6B2FF2000F044F8FFF780FF00F011F8D6
:1029D0000128A95D04F0070209FA02F007D081433B
:1029E000641CA4B2A955BC42E8D32846D5E70143EC
:1029F000F6E7FF2801D0002070470120704710B58E
:102A00004FF4165000F090F8F02000F021F8FFF796
:102A10005DFF04464FF4E13000F086F8204610BD1B
:102A200070B505460024FFF767FF00BF05EBC40142
:102A30002846FFF74FFE002802DA4FF0FF3070BD46
:102A400004F1010401D0022CF0DB204670BD00002F
:102A500007490A7842F001020A700649C0F30800EB
:102A60004860054800680168C9434906FBD47047BF
:102A70001800002000380140500000201CB56946B5
:102A8000FFF73CFD00236C46E05CFFF7E1FF5B1CB9
:102A9000082BF9DB1CBD7FB500238DF800300646FE
:102AA0008DF80130087814460D46102815D02828D6
:102AB00027D101AA3046FFF765FF9DF80B00010101
:102AC0009DF80C0041EA101100F00F0000EB8000AF
:102AD0008DF80010C0F3DB000CE001AA3046FFF7D0
:102AE00051FF9DF80C00410800F001008DF8001026
:102AF00000EB80008DF801001CB129463046FFF73D
:102B0000DCFEBDF8000004B070BD000010B5044646
:102B1000FDF7ACFC214682B2BDE8104064230148B9
:102B2000FFF716BB9400002010B50C4C0A49C4E90D
:102B300000100020A0600C21E060C4E90401A06145
:102B4000E0612046FEF706FE00B100BF2068C168C4
:102B500041F02001C16010BD00380140500000204C
:102B600010B500290AD00878002807D00548784415
:102B7000FDF7C2FC002801D0002010BD02487844B7
:102B800010BD0000D6030000CE0300000808A0F529
:102B900000114FEA3101704743004FEAD30C4FEA6E
:102BA0003C0C43401FBF40070CF1605113F0FE4F37
:102BB00070471CF0006F03D100200CF000417047FB
:102BC0000CF0004343EA507010B540EACC0000F02E
:102BD000E9F800BF000000924FEA0001FFF7D6BFFE
:102BE0004FF000414FF00000A1F5002170470000B8
:102BF0004FF47F0C1CEAD0121EBF1CEAD11392EADC
:102C00000C0F93EA0C0F00F0858090EA010F48BF8B
:102C100042F4807240F4000C41F400002CF07F413B
:102C200020F07F4000B58142A2EB03020FF2081CA6
:102C3000ACEB504EC0F100009EF800E04FEA4E0EA3
:102C400000FB0EFC38BF49004FEA2C1C02F5FA02CB
:102C50000CFB0EF34FEACE1E4FEA112C4FEAC121B6
:102C60000EEB635E42EB22420EFB0CFC4FEA1C5360
:102C700000FB03114FEA112C4FEA01310EFB0CFC53
:102C80004FEADC4C00FB0C11C14228BF09184CEB89
:102C900003335DF804EB10EB410143EBC250B2F596
:102CA0007C0F38BF704729D512F0F00F1CBF00F120
:102CB000C04000F000407047008182838485868791
:102CC00088898B8C8D8E8F919293959697999A9CEB
:102CD0009D9FA0A2A3A5A7A8AAACAEB0B2B3B5B75A
:102CE000B9BCBEC0C2C5C7C9CCCED1D4D7D9DCDF30
:102CF000E2E6E9ECF0F3F7FAFE0000004FEA400CE0
:102D00000CF1807CBCF17E4F28BF7047B0F1C04011
:102D100000F08EB890EA010F0CEAD11348BF42F4DC
:102D20008072624538BF634507D213F47F0F16D017
:102D300080EA010000F00040704710B500F032F862
:102D4000097EFC3E00F005B880EA010000F000407A
:102D5000704780EA010000F0004000F069B812F40A
:102D60007F0F04BF0248704780EA010000F060B89E
:102D70000000C07F10F0004148BF4042B0FA80F32D
:102D800010FA03F2C3F19D030BD051EAC35101EBDA
:102D90001220530638BF704700F1010008BF20F031
:102DA000010070470EF1020E2EF0030E5EF8044B88
:102DB000244204D44FEA4102B2F17F4F11D84FEAC6
:102DC0004003B3F17F4F0CD80ED14FEAD07CB2F163
:102DD0007F4F0CEB4C0C0CF1020C08BF4CEBD17C80
:102DE00004E04FF0080C01E04FEAD17C0CEB4C03FF
:102DF00024FA03F404F00704B4F1040C06D20EEB39
:102E0000840CBDE810404CF0010C6047DFE80CF08A
:102E1000070802024FF00040A0F5800010BD0846F0
:102E2000420018BFD2F1807288BF00F0004010BD90
:102E3000FF2141EAD050C0057047FDF7D0BC00002B
:102E4000000000000000010203040607080900005A
:102E5000000001020304303132333435363738395B
:102E600041424344454640305800303132333435D6
:102E70003637383961626364656640307800040033
:102E80000008000000000000000200010000100027
:102E900002400000000000A000000000054000000B
:102EA000000000C8000000000C4000000000409C32
:102EB00000000000194000000020BCBE000000001F
:102EC00034400000BFC91B8E00000004B540000064
:102ED000504BCFD06607E2CF010000006C410000EC
:102EE0003E8251AADFEEA73401000000D942000063
:102EF000DCB5A0E23A301F97FFFFFFFFB4450000AA
:102F0000FD25A0C8E9A3C14FFFFFFFFFFF3F000061
:102F10000000008000000000FF3F00000000008073
:102F200000000000602F00080000002030000000BA
:102F300028010008902F00083000002058070000EA
:102F4000440100081C00000043000000F8FFFFFFE0
:102F50000C0000000E0000000F0000002E0000001A
:102F60000000000000000000010000001000000050
:102F7000000000000024F400000000002C0100000C
:102F80000000000000000000000000000000000041
:04000005080000ED02
:00000001FF
